:020000040000FA
:1000000086018316860183123230A1006E30A00073
:100010001430A7002D30A5001430A6000030A40035
:100020003230A80021082002031D1B202620412079
:100030004720592012280614642064206620A10A53
:1000400021082002031D1C280610080086146420C5
:10005000642066206420642066208610270825021C
:10006000031D33280800061564206420662006114D
:10007000642064206620A70A27082502031D332870
:100080000800861527082502031D86110800642034
:100090006420662064206420662086166420642024
:1000A0006620A10321082802031D4E285728861226
:1000B0000800642064206620642064206620061501
:1000C00086111B2006110800C83068286430682893
:1000D000A300F930A2000000A20B6B28A30B692833
:0200E000080016
:0400E20000340034B2
:02400E00E13F90
:00000001FF
